{
  "contractName": "CheapBoredApeYachtClub",
  "abi": [
    {
      "inputs": [],
      "stateMutability": "nonpayable",
      "type": "constructor"
    },
    {
      "anonymous": false,
      "inputs": [
        {
          "indexed": true,
          "internalType": "address",
          "name": "owner",
          "type": "address"
        },
        {
          "indexed": true,
          "internalType": "address",
          "name": "approved",
          "type": "address"
        },
        {
          "indexed": true,
          "internalType": "uint256",
          "name": "tokenId",
          "type": "uint256"
        }
      ],
      "name": "Approval",
      "type": "event"
    },
    {
      "anonymous": false,
      "inputs": [
        {
          "indexed": true,
          "internalType": "address",
          "name": "owner",
          "type": "address"
        },
        {
          "indexed": true,
          "internalType": "address",
          "name": "operator",
          "type": "address"
        },
        {
          "indexed": false,
          "internalType": "bool",
          "name": "approved",
          "type": "bool"
        }
      ],
      "name": "ApprovalForAll",
      "type": "event"
    },
    {
      "anonymous": false,
      "inputs": [
        {
          "indexed": true,
          "internalType": "address",
          "name": "previousOwner",
          "type": "address"
        },
        {
          "indexed": true,
          "internalType": "address",
          "name": "newOwner",
          "type": "address"
        }
      ],
      "name": "OwnershipTransferred",
      "type": "event"
    },
    {
      "anonymous": false,
      "inputs": [
        {
          "indexed": true,
          "internalType": "address",
          "name": "from",
          "type": "address"
        },
        {
          "indexed": true,
          "internalType": "address",
          "name": "to",
          "type": "address"
        },
        {
          "indexed": true,
          "internalType": "uint256",
          "name": "tokenId",
          "type": "uint256"
        }
      ],
      "name": "Transfer",
      "type": "event"
    },
    {
      "inputs": [
        {
          "internalType": "address",
          "name": "to",
          "type": "address"
        },
        {
          "internalType": "uint256",
          "name": "tokenId",
          "type": "uint256"
        }
      ],
      "name": "approve",
      "outputs": [],
      "stateMutability": "nonpayable",
      "type": "function"
    },
    {
      "inputs": [
        {
          "internalType": "address",
          "name": "owner",
          "type": "address"
        }
      ],
      "name": "balanceOf",
      "outputs": [
        {
          "internalType": "uint256",
          "name": "",
          "type": "uint256"
        }
      ],
      "stateMutability": "view",
      "type": "function",
      "constant": true
    },
    {
      "inputs": [
        {
          "internalType": "uint256",
          "name": "tokenId",
          "type": "uint256"
        }
      ],
      "name": "getApproved",
      "outputs": [
        {
          "internalType": "address",
          "name": "",
          "type": "address"
        }
      ],
      "stateMutability": "view",
      "type": "function",
      "constant": true
    },
    {
      "inputs": [
        {
          "internalType": "address",
          "name": "owner",
          "type": "address"
        },
        {
          "internalType": "address",
          "name": "operator",
          "type": "address"
        }
      ],
      "name": "isApprovedForAll",
      "outputs": [
        {
          "internalType": "bool",
          "name": "",
          "type": "bool"
        }
      ],
      "stateMutability": "view",
      "type": "function",
      "constant": true
    },
    {
      "inputs": [],
      "name": "name",
      "outputs": [
        {
          "internalType": "string",
          "name": "",
          "type": "string"
        }
      ],
      "stateMutability": "view",
      "type": "function",
      "constant": true
    },
    {
      "inputs": [],
      "name": "owner",
      "outputs": [
        {
          "internalType": "address",
          "name": "",
          "type": "address"
        }
      ],
      "stateMutability": "view",
      "type": "function",
      "constant": true
    },
    {
      "inputs": [
        {
          "internalType": "uint256",
          "name": "tokenId",
          "type": "uint256"
        }
      ],
      "name": "ownerOf",
      "outputs": [
        {
          "internalType": "address",
          "name": "",
          "type": "address"
        }
      ],
      "stateMutability": "view",
      "type": "function",
      "constant": true
    },
    {
      "inputs": [],
      "name": "renounceOwnership",
      "outputs": [],
      "stateMutability": "nonpayable",
      "type": "function"
    },
    {
      "inputs": [
        {
          "internalType": "address",
          "name": "from",
          "type": "address"
        },
        {
          "internalType": "address",
          "name": "to",
          "type": "address"
        },
        {
          "internalType": "uint256",
          "name": "tokenId",
          "type": "uint256"
        }
      ],
      "name": "safeTransferFrom",
      "outputs": [],
      "stateMutability": "nonpayable",
      "type": "function"
    },
    {
      "inputs": [
        {
          "internalType": "address",
          "name": "from",
          "type": "address"
        },
        {
          "internalType": "address",
          "name": "to",
          "type": "address"
        },
        {
          "internalType": "uint256",
          "name": "tokenId",
          "type": "uint256"
        },
        {
          "internalType": "bytes",
          "name": "data",
          "type": "bytes"
        }
      ],
      "name": "safeTransferFrom",
      "outputs": [],
      "stateMutability": "nonpayable",
      "type": "function"
    },
    {
      "inputs": [
        {
          "internalType": "address",
          "name": "operator",
          "type": "address"
        },
        {
          "internalType": "bool",
          "name": "approved",
          "type": "bool"
        }
      ],
      "name": "setApprovalForAll",
      "outputs": [],
      "stateMutability": "nonpayable",
      "type": "function"
    },
    {
      "inputs": [],
      "name": "symbol",
      "outputs": [
        {
          "internalType": "string",
          "name": "",
          "type": "string"
        }
      ],
      "stateMutability": "view",
      "type": "function",
      "constant": true
    },
    {
      "inputs": [
        {
          "internalType": "address",
          "name": "from",
          "type": "address"
        },
        {
          "internalType": "address",
          "name": "to",
          "type": "address"
        },
        {
          "internalType": "uint256",
          "name": "tokenId",
          "type": "uint256"
        }
      ],
      "name": "transferFrom",
      "outputs": [],
      "stateMutability": "nonpayable",
      "type": "function"
    },
    {
      "inputs": [
        {
          "internalType": "address",
          "name": "newOwner",
          "type": "address"
        }
      ],
      "name": "transferOwnership",
      "outputs": [],
      "stateMutability": "nonpayable",
      "type": "function"
    },
    {
      "inputs": [],
      "name": "byeToken",
      "outputs": [],
      "stateMutability": "payable",
      "type": "function",
      "payable": true
    },
    {
      "inputs": [
        {
          "internalType": "address",
          "name": "to",
          "type": "address"
        },
        {
          "internalType": "string",
          "name": "uri",
          "type": "string"
        }
      ],
      "name": "safeMint",
      "outputs": [],
      "stateMutability": "nonpayable",
      "type": "function"
    },
    {
      "inputs": [
        {
          "internalType": "uint256",
          "name": "tokenId",
          "type": "uint256"
        }
      ],
      "name": "tokenURI",
      "outputs": [
        {
          "internalType": "string",
          "name": "",
          "type": "string"
        }
      ],
      "stateMutability": "pure",
      "type": "function",
      "constant": true
    },
    {
      "inputs": [
        {
          "internalType": "bytes4",
          "name": "interfaceId",
          "type": "bytes4"
        }
      ],
      "name": "supportsInterface",
      "outputs": [
        {
          "internalType": "bool",
          "name": "",
          "type": "bool"
        }
      ],
      "stateMutability": "view",
      "type": "function",
      "constant": true
    }
  ],
  "bytecode": "0x608060405234801562000010575f80fd5b506040518060400160405280601681526020017f4368656170426f7265644170655961636874436c7562000000000000000000008152506040518060400160405280600481526020017f4241594300000000000000000000000000000000000000000000000000000000815250815f90816200008d9190620003f6565b5080600190816200009f9190620003f6565b505050620000c2620000b6620000c860201b60201c565b620000cf60201b60201c565b620004da565b5f33905090565b5f60065f9054906101000a900473ffffffffffffffffffffffffffffffffffffffff1690508160065f6101000a81548173ffffffffffffffffffffffffffffffffffffffff021916908373ffffffffffffffffffffffffffffffffffffffff1602179055508173ffffffffffffffffffffffffffffffffffffffff168173ffffffffffffffffffffffffffffffffffffffff167f8be0079c531659141344cd1fd0a4f28419497f9722a3daafe3b4186f6b6457e060405160405180910390a35050565b5f81519050919050565b7f4e487b71000000000000000000000000000000000000000000000000000000005f52604160045260245ffd5b7f4e487b71000000000000000000000000000000000000000000000000000000005f52602260045260245ffd5b5f60028204905060018216806200020e57607f821691505b602082108103620002245762000223620001c9565b5b50919050565b5f819050815f5260205f209050919050565b5f6020601f8301049050919050565b5f82821b905092915050565b5f60088302620002887fffffffffffffffffffffffffffffffffffffffffffffffffffffffffffffffff826200024b565b6200029486836200024b565b95508019841693508086168417925050509392505050565b5f819050919050565b5f819050919050565b5f620002de620002d8620002d284620002ac565b620002b5565b620002ac565b9050919050565b5f819050919050565b620002f983620002be565b620003116200030882620002e5565b84845462000257565b825550505050565b5f90565b6200032762000319565b62000334818484620002ee565b505050565b5b818110156200035b576200034f5f826200031d565b6001810190506200033a565b5050565b601f821115620003aa5762000374816200022a565b6200037f846200023c565b810160208510156200038f578190505b620003a76200039e856200023c565b83018262000339565b50505b505050565b5f82821c905092915050565b5f620003cc5f1984600802620003af565b1980831691505092915050565b5f620003e68383620003bb565b9150826002028217905092915050565b620004018262000192565b67ffffffffffffffff8111156200041d576200041c6200019c565b5b620004298254620001f6565b620004368282856200035f565b5f60209050601f8311600181146200046c575f841562000457578287015190505b620004638582620003d9565b865550620004d2565b601f1984166200047c866200022a565b5f5b82811015620004a5578489015182556001820191506020850194506020810190506200047e565b86831015620004c55784890151620004c1601f891682620003bb565b8355505b6001600288020188555050505b505050505050565b612ae180620004e85f395ff3fe608060405260043610610108575f3560e01c8063715018a611610094578063b88d4fde11610063578063b88d4fde1461033a578063c87b56dd14610362578063d204c45e1461039e578063e985e9c5146103c6578063f2fde38b1461040257610108565b8063715018a6146102a85780638da5cb5b146102be57806395d89b41146102e8578063a22cb4651461031257610108565b806323b872dd116100db57806323b872dd146101d657806342842e0e146101fe5780635cd94c2c146102265780636352211e1461023057806370a082311461026c57610108565b806301ffc9a71461010c57806306fdde0314610148578063081812fc14610172578063095ea7b3146101ae575b5f80fd5b348015610117575f80fd5b50610132600480360381019061012d9190611a42565b61042a565b60405161013f9190611a87565b60405180910390f35b348015610153575f80fd5b5061015c61043b565b6040516101699190611b2a565b60405180910390f35b34801561017d575f80fd5b5061019860048036038101906101939190611b7d565b6104ca565b6040516101a59190611be7565b60405180910390f35b3480156101b9575f80fd5b506101d460048036038101906101cf9190611c2a565b61050c565b005b3480156101e1575f80fd5b506101fc60048036038101906101f79190611c68565b610622565b005b348015610209575f80fd5b50610224600480360381019061021f9190611c68565b610682565b005b61022e6106a1565b005b34801561023b575f80fd5b5061025660048036038101906102519190611b7d565b61075a565b6040516102639190611be7565b60405180910390f35b348015610277575f80fd5b50610292600480360381019061028d9190611cb8565b6107de565b60405161029f9190611cf2565b60405180910390f35b3480156102b3575f80fd5b506102bc610892565b005b3480156102c9575f80fd5b506102d26108a5565b6040516102df9190611be7565b60405180910390f35b3480156102f3575f80fd5b506102fc6108cd565b6040516103099190611b2a565b60405180910390f35b34801561031d575f80fd5b5061033860048036038101906103339190611d35565b61095d565b005b348015610345575f80fd5b50610360600480360381019061035b9190611e9f565b610973565b005b34801561036d575f80fd5b5061038860048036038101906103839190611b7d565b6109d5565b6040516103959190611b2a565b60405180910390f35b3480156103a9575f80fd5b506103c460048036038101906103bf9190611fbd565b610a13565b005b3480156103d1575f80fd5b506103ec60048036038101906103e79190612017565b610a41565b6040516103f99190611a87565b60405180910390f35b34801561040d575f80fd5b5061042860048036038101906104239190611cb8565b610acf565b005b5f61043482610b51565b9050919050565b60605f805461044990612082565b80601f016020809104026020016040519081016040528092919081815260200182805461047590612082565b80156104c05780601f10610497576101008083540402835291602001916104c0565b820191905f5260205f20905b8154815290600101906020018083116104a357829003601f168201915b5050505050905090565b5f6104d482610c32565b60045f8381526020019081526020015f205f9054906101000a900473ffffffffffffffffffffffffffffffffffffffff169050919050565b5f6105168261075a565b90508073ffffffffffffffffffffffffffffffffffffffff168373ffffffffffffffffffffffffffffffffffffffff1603610586576040517f08c379a000000000000000000000000000000000000000000000000000000000815260040161057d90612122565b60405180910390fd5b8073ffffffffffffffffffffffffffffffffffffffff166105a5610c7d565b73ffffffffffffffffffffffffffffffffffffffff1614806105d457506105d3816105ce610c7d565b610a41565b5b610613576040517f08c379a000000000000000000000000000000000000000000000000000000000815260040161060a906121b0565b60405180910390fd5b61061d8383610c84565b505050565b61063361062d610c7d565b82610d3a565b610672576040517f08c379a00000000000000000000000000000000000000000000000000000000081526004016106699061223e565b60405180910390fd5b61067d838383610dce565b505050565b61069c83838360405180602001604052805f815250610973565b505050565b5f6106ac60076110ba565b90506106ee6040518060400160405280600881526020017f676f74206865726500000000000000000000000000000000000000000000000081525082346110c6565b67016345785d8a0000816107029190612289565b3414610743576040517f08c379a000000000000000000000000000000000000000000000000000000000815260040161073a90612314565b60405180910390fd5b61074d6007611165565b6107573382611179565b50565b5f8061076583611196565b90505f73ffffffffffffffffffffffffffffffffffffffff168173ffffffffffffffffffffffffffffffffffffffff16036107d5576040517f08c379a00000000000000000000000000000000000000000000000000000000081526004016107cc9061237c565b60405180910390fd5b80915050919050565b5f8073ffffffffffffffffffffffffffffffffffffffff168273ffffffffffffffffffffffffffffffffffffffff160361084d576040517f08c379a00000000000000000000000000000000000000000000000000000000081526004016108449061240a565b60405180910390fd5b60035f8373ffffffffffffffffffffffffffffffffffffffff1673ffffffffffffffffffffffffffffffffffffffff1681526020019081526020015f20549050919050565b61089a6111cf565b6108a35f61124d565b565b5f60065f9054906101000a900473ffffffffffffffffffffffffffffffffffffffff16905090565b6060600180546108dc90612082565b80601f016020809104026020016040519081016040528092919081815260200182805461090890612082565b80156109535780601f1061092a57610100808354040283529160200191610953565b820191905f5260205f20905b81548152906001019060200180831161093657829003601f168201915b5050505050905090565b61096f610968610c7d565b8383611310565b5050565b61098461097e610c7d565b83610d3a565b6109c3576040517f08c379a00000000000000000000000000000000000000000000000000000000081526004016109ba9061223e565b60405180910390fd5b6109cf84848484611477565b50505050565b60606109df6114d3565b6001836109ec9190612428565b6040516020016109fd929190612549565b6040516020818303038152906040529050919050565b610a1b6111cf565b5f610a2660076110ba565b9050610a326007611165565b610a3c8382611179565b505050565b5f60055f8473ffffffffffffffffffffffffffffffffffffffff1673ffffffffffffffffffffffffffffffffffffffff1681526020019081526020015f205f8373ffffffffffffffffffffffffffffffffffffffff1673ffffffffffffffffffffffffffffffffffffffff1681526020019081526020015f205f9054906101000a900460ff16905092915050565b610ad76111cf565b5f73ffffffffffffffffffffffffffffffffffffffff168173ffffffffffffffffffffffffffffffffffffffff1603610b45576040517f08c379a0000000000000000000000000000000000000000000000000000000008152600401610b3c906125f6565b60405180910390fd5b610b4e8161124d565b50565b5f7f80ac58cd000000000000000000000000000000000000000000000000000000007bffffffffffffffffffffffffffffffffffffffffffffffffffffffff1916827bffffffffffffffffffffffffffffffffffffffffffffffffffffffff19161480610c1b57507f5b5e139f000000000000000000000000000000000000000000000000000000007bffffffffffffffffffffffffffffffffffffffffffffffffffffffff1916827bffffffffffffffffffffffffffffffffffffffffffffffffffffffff1916145b80610c2b5750610c2a826114f3565b5b9050919050565b610c3b8161155c565b610c7a576040517f08c379a0000000000000000000000000000000000000000000000000000000008152600401610c719061237c565b60405180910390fd5b50565b5f33905090565b8160045f8381526020019081526020015f205f6101000a81548173ffffffffffffffffffffffffffffffffffffffff021916908373ffffffffffffffffffffffffffffffffffffffff160217905550808273ffffffffffffffffffffffffffffffffffffffff16610cf48361075a565b73ffffffffffffffffffffffffffffffffffffffff167f8c5be1e5ebec7d5bd14f71427d1e84f3dd0314c0f7b2291e5b200ac8c7c3b92560405160405180910390a45050565b5f80610d458361075a565b90508073ffffffffffffffffffffffffffffffffffffffff168473ffffffffffffffffffffffffffffffffffffffff161480610d875750610d868185610a41565b5b80610dc557508373ffffffffffffffffffffffffffffffffffffffff16610dad846104ca565b73ffffffffffffffffffffffffffffffffffffffff16145b91505092915050565b8273ffffffffffffffffffffffffffffffffffffffff16610dee8261075a565b73ffffffffffffffffffffffffffffffffffffffff1614610e44576040517f08c379a0000000000000000000000000000000000000000000000000000000008152600401610e3b90612684565b60405180910390fd5b5f73ffffffffffffffffffffffffffffffffffffffff168273ffffffffffffffffffffffffffffffffffffffff1603610eb2576040517f08c379a0000000000000000000000000000000000000000000000000000000008152600401610ea990612712565b60405180910390fd5b610ebf838383600161159c565b8273ffffffffffffffffffffffffffffffffffffffff16610edf8261075a565b73ffffffffffffffffffffffffffffffffffffffff1614610f35576040517f08c379a0000000000000000000000000000000000000000000000000000000008152600401610f2c90612684565b60405180910390fd5b60045f8281526020019081526020015f205f6101000a81549073ffffffffffffffffffffffffffffffffffffffff0219169055600160035f8573ffffffffffffffffffffffffffffffffffffffff1673ffffffffffffffffffffffffffffffffffffffff1681526020019081526020015f205f8282540392505081905550600160035f8473ffffffffffffffffffffffffffffffffffffffff1673ffffffffffffffffffffffffffffffffffffffff1681526020019081526020015f205f82825401925050819055508160025f8381526020019081526020015f205f6101000a81548173ffffffffffffffffffffffffffffffffffffffff021916908373ffffffffffffffffffffffffffffffffffffffff160217905550808273ffffffffffffffffffffffffffffffffffffffff168473ffffffffffffffffffffffffffffffffffffffff167fddf252ad1be2c89b69c2b068fc378daa952ba7f163c4a11628f55a4df523b3ef60405160405180910390a46110b583838360016115a2565b505050565b5f815f01549050919050565b6111608383836040516024016110de93929190612730565b6040516020818303038152906040527fca47c4eb000000000000000000000000000000000000000000000000000000007bffffffffffffffffffffffffffffffffffffffffffffffffffffffff19166020820180517bffffffffffffffffffffffffffffffffffffffffffffffffffffffff83818316178352505050506115a8565b505050565b6001815f015f828254019250508190555050565b611192828260405180602001604052805f8152506115cb565b5050565b5f60025f8381526020019081526020015f205f9054906101000a900473ffffffffffffffffffffffffffffffffffffffff169050919050565b6111d7610c7d565b73ffffffffffffffffffffffffffffffffffffffff166111f56108a5565b73ffffffffffffffffffffffffffffffffffffffff161461124b576040517f08c379a0000000000000000000000000000000000000000000000000000000008152600401611242906127b6565b60405180910390fd5b565b5f60065f9054906101000a900473ffffffffffffffffffffffffffffffffffffffff1690508160065f6101000a81548173ffffffffffffffffffffffffffffffffffffffff021916908373ffffffffffffffffffffffffffffffffffffffff1602179055508173ffffffffffffffffffffffffffffffffffffffff168173ffffffffffffffffffffffffffffffffffffffff167f8be0079c531659141344cd1fd0a4f28419497f9722a3daafe3b4186f6b6457e060405160405180910390a35050565b8173ffffffffffffffffffffffffffffffffffffffff168373ffffffffffffffffffffffffffffffffffffffff160361137e576040517f08c379a00000000000000000000000000000000000000000000000000000000081526004016113759061281e565b60405180910390fd5b8060055f8573ffffffffffffffffffffffffffffffffffffffff1673ffffffffffffffffffffffffffffffffffffffff1681526020019081526020015f205f8473ffffffffffffffffffffffffffffffffffffffff1673ffffffffffffffffffffffffffffffffffffffff1681526020019081526020015f205f6101000a81548160ff0219169083151502179055508173ffffffffffffffffffffffffffffffffffffffff168373ffffffffffffffffffffffffffffffffffffffff167f17307eab39ab6107e8899845ad3d59bd9653f200f220920489ca2b5937696c318360405161146a9190611a87565b60405180910390a3505050565b611482848484610dce565b61148e84848484611625565b6114cd576040517f08c379a00000000000000000000000000000000000000000000000000000000081526004016114c4906128ac565b60405180910390fd5b50505050565b6060604051806060016040528060368152602001612a7660369139905090565b5f7f01ffc9a7000000000000000000000000000000000000000000000000000000007bffffffffffffffffffffffffffffffffffffffffffffffffffffffff1916827bffffffffffffffffffffffffffffffffffffffffffffffffffffffff1916149050919050565b5f8073ffffffffffffffffffffffffffffffffffffffff1661157d83611196565b73ffffffffffffffffffffffffffffffffffffffff1614159050919050565b50505050565b50505050565b5f6a636f6e736f6c652e6c6f6790508151602083015f808383865afa5050505050565b6115d583836117a7565b6115e15f848484611625565b611620576040517f08c379a0000000000000000000000000000000000000000000000000000000008152600401611617906128ac565b60405180910390fd5b505050565b5f6116458473ffffffffffffffffffffffffffffffffffffffff166119ba565b1561179a578373ffffffffffffffffffffffffffffffffffffffff1663150b7a0261166e610c7d565b8786866040518563ffffffff1660e01b8152600401611690949392919061291c565b6020604051808303815f875af19250505080156116cb57506040513d601f19601f820116820180604052508101906116c8919061297a565b60015b61174a573d805f81146116f9576040519150601f19603f3d011682016040523d82523d5f602084013e6116fe565b606091505b505f815103611742576040517f08c379a0000000000000000000000000000000000000000000000000000000008152600401611739906128ac565b60405180910390fd5b805181602001fd5b63150b7a0260e01b7bffffffffffffffffffffffffffffffffffffffffffffffffffffffff1916817bffffffffffffffffffffffffffffffffffffffffffffffffffffffff19161491505061179f565b600190505b949350505050565b5f73ffffffffffffffffffffffffffffffffffffffff168273ffffffffffffffffffffffffffffffffffffffff1603611815576040517f08c379a000000000000000000000000000000000000000000000000000000000815260040161180c906129ef565b60405180910390fd5b61181e8161155c565b1561185e576040517f08c379a000000000000000000000000000000000000000000000000000000000815260040161185590612a57565b60405180910390fd5b61186b5f8383600161159c565b6118748161155c565b156118b4576040517f08c379a00000000000000000000000000000000000000000000000000000000081526004016118ab90612a57565b60405180910390fd5b600160035f8473ffffffffffffffffffffffffffffffffffffffff1673ffffffffffffffffffffffffffffffffffffffff1681526020019081526020015f205f82825401925050819055508160025f8381526020019081526020015f205f6101000a81548173ffffffffffffffffffffffffffffffffffffffff021916908373ffffffffffffffffffffffffffffffffffffffff160217905550808273ffffffffffffffffffffffffffffffffffffffff165f73ffffffffffffffffffffffffffffffffffffffff167fddf252ad1be2c89b69c2b068fc378daa952ba7f163c4a11628f55a4df523b3ef60405160405180910390a46119b65f838360016115a2565b5050565b5f808273ffffffffffffffffffffffffffffffffffffffff163b119050919050565b5f604051905090565b5f80fd5b5f80fd5b5f7fffffffff0000000000000000000000000000000000000000000000000000000082169050919050565b611a21816119ed565b8114611a2b575f80fd5b50565b5f81359050611a3c81611a18565b92915050565b5f60208284031215611a5757611a566119e5565b5b5f611a6484828501611a2e565b91505092915050565b5f8115159050919050565b611a8181611a6d565b82525050565b5f602082019050611a9a5f830184611a78565b92915050565b5f81519050919050565b5f82825260208201905092915050565b5f5b83811015611ad7578082015181840152602081019050611abc565b5f8484015250505050565b5f601f19601f8301169050919050565b5f611afc82611aa0565b611b068185611aaa565b9350611b16818560208601611aba565b611b1f81611ae2565b840191505092915050565b5f6020820190508181035f830152611b428184611af2565b905092915050565b5f819050919050565b611b5c81611b4a565b8114611b66575f80fd5b50565b5f81359050611b7781611b53565b92915050565b5f60208284031215611b9257611b916119e5565b5b5f611b9f84828501611b69565b91505092915050565b5f73ffffffffffffffffffffffffffffffffffffffff82169050919050565b5f611bd182611ba8565b9050919050565b611be181611bc7565b82525050565b5f602082019050611bfa5f830184611bd8565b92915050565b611c0981611bc7565b8114611c13575f80fd5b50565b5f81359050611c2481611c00565b92915050565b5f8060408385031215611c4057611c3f6119e5565b5b5f611c4d85828601611c16565b9250506020611c5e85828601611b69565b9150509250929050565b5f805f60608486031215611c7f57611c7e6119e5565b5b5f611c8c86828701611c16565b9350506020611c9d86828701611c16565b9250506040611cae86828701611b69565b9150509250925092565b5f60208284031215611ccd57611ccc6119e5565b5b5f611cda84828501611c16565b91505092915050565b611cec81611b4a565b82525050565b5f602082019050611d055f830184611ce3565b92915050565b611d1481611a6d565b8114611d1e575f80fd5b50565b5f81359050611d2f81611d0b565b92915050565b5f8060408385031215611d4b57611d4a6119e5565b5b5f611d5885828601611c16565b9250506020611d6985828601611d21565b9150509250929050565b5f80fd5b5f80fd5b7f4e487b71000000000000000000000000000000000000000000000000000000005f52604160045260245ffd5b611db182611ae2565b810181811067ffffffffffffffff82111715611dd057611dcf611d7b565b5b80604052505050565b5f611de26119dc565b9050611dee8282611da8565b919050565b5f67ffffffffffffffff821115611e0d57611e0c611d7b565b5b611e1682611ae2565b9050602081019050919050565b828183375f83830152505050565b5f611e43611e3e84611df3565b611dd9565b905082815260208101848484011115611e5f57611e5e611d77565b5b611e6a848285611e23565b509392505050565b5f82601f830112611e8657611e85611d73565b5b8135611e96848260208601611e31565b91505092915050565b5f805f8060808587031215611eb757611eb66119e5565b5b5f611ec487828801611c16565b9450506020611ed587828801611c16565b9350506040611ee687828801611b69565b925050606085013567ffffffffffffffff811115611f0757611f066119e9565b5b611f1387828801611e72565b91505092959194509250565b5f67ffffffffffffffff821115611f3957611f38611d7b565b5b611f4282611ae2565b9050602081019050919050565b5f611f61611f5c84611f1f565b611dd9565b905082815260208101848484011115611f7d57611f7c611d77565b5b611f88848285611e23565b509392505050565b5f82601f830112611fa457611fa3611d73565b5b8135611fb4848260208601611f4f565b91505092915050565b5f8060408385031215611fd357611fd26119e5565b5b5f611fe085828601611c16565b925050602083013567ffffffffffffffff811115612001576120006119e9565b5b61200d85828601611f90565b9150509250929050565b5f806040838503121561202d5761202c6119e5565b5b5f61203a85828601611c16565b925050602061204b85828601611c16565b9150509250929050565b7f4e487b71000000000000000000000000000000000000000000000000000000005f52602260045260245ffd5b5f600282049050600182168061209957607f821691505b6020821081036120ac576120ab612055565b5b50919050565b7f4552433732313a20617070726f76616c20746f2063757272656e74206f776e655f8201527f7200000000000000000000000000000000000000000000000000000000000000602082015250565b5f61210c602183611aaa565b9150612117826120b2565b604082019050919050565b5f6020820190508181035f83015261213981612100565b9050919050565b7f4552433732313a20617070726f76652063616c6c6572206973206e6f7420746f5f8201527f6b656e206f776e6572206f7220617070726f76656420666f7220616c6c000000602082015250565b5f61219a603d83611aaa565b91506121a582612140565b604082019050919050565b5f6020820190508181035f8301526121c78161218e565b9050919050565b7f4552433732313a2063616c6c6572206973206e6f7420746f6b656e206f776e655f8201527f72206f7220617070726f76656400000000000000000000000000000000000000602082015250565b5f612228602d83611aaa565b9150612233826121ce565b604082019050919050565b5f6020820190508181035f8301526122558161221c565b9050919050565b7f4e487b71000000000000000000000000000000000000000000000000000000005f52601160045260245ffd5b5f61229382611b4a565b915061229e83611b4a565b92508282026122ac81611b4a565b915082820484148315176122c3576122c261225c565b5b5092915050565b7f4e6f7420656e6f756768742066756e64730000000000000000000000000000005f82015250565b5f6122fe601183611aaa565b9150612309826122ca565b602082019050919050565b5f6020820190508181035f83015261232b816122f2565b9050919050565b7f4552433732313a20696e76616c696420746f6b656e20494400000000000000005f82015250565b5f612366601883611aaa565b915061237182612332565b602082019050919050565b5f6020820190508181035f8301526123938161235a565b9050919050565b7f4552433732313a2061646472657373207a65726f206973206e6f7420612076615f8201527f6c6964206f776e65720000000000000000000000000000000000000000000000602082015250565b5f6123f4602983611aaa565b91506123ff8261239a565b604082019050919050565b5f6020820190508181035f830152612421816123e8565b9050919050565b5f61243282611b4a565b915061243d83611b4a565b92508282019050808211156124555761245461225c565b5b92915050565b5f81905092915050565b5f61246f82611aa0565b612479818561245b565b9350612489818560208601611aba565b80840191505092915050565b7f626179635f0000000000000000000000000000000000000000000000000000005f82015250565b5f6124c960058361245b565b91506124d482612495565b600582019050919050565b5f819050919050565b6124f96124f482611b4a565b6124df565b82525050565b7f2e6a736f6e0000000000000000000000000000000000000000000000000000005f82015250565b5f61253360058361245b565b915061253e826124ff565b600582019050919050565b5f6125548285612465565b915061255f826124bd565b915061256b82846124e8565b60208201915061257a82612527565b91508190509392505050565b7f4f776e61626c653a206e6577206f776e657220697320746865207a65726f20615f8201527f6464726573730000000000000000000000000000000000000000000000000000602082015250565b5f6125e0602683611aaa565b91506125eb82612586565b604082019050919050565b5f6020820190508181035f83015261260d816125d4565b9050919050565b7f4552433732313a207472616e736665722066726f6d20696e636f7272656374205f8201527f6f776e6572000000000000000000000000000000000000000000000000000000602082015250565b5f61266e602583611aaa565b915061267982612614565b604082019050919050565b5f6020820190508181035f83015261269b81612662565b9050919050565b7f4552433732313a207472616e7366657220746f20746865207a65726f206164645f8201527f7265737300000000000000000000000000000000000000000000000000000000602082015250565b5f6126fc602483611aaa565b9150612707826126a2565b604082019050919050565b5f6020820190508181035f830152612729816126f0565b9050919050565b5f6060820190508181035f8301526127488186611af2565b90506127576020830185611ce3565b6127646040830184611ce3565b949350505050565b7f4f776e61626c653a2063616c6c6572206973206e6f7420746865206f776e65725f82015250565b5f6127a0602083611aaa565b91506127ab8261276c565b602082019050919050565b5f6020820190508181035f8301526127cd81612794565b9050919050565b7f4552433732313a20617070726f766520746f2063616c6c6572000000000000005f82015250565b5f612808601983611aaa565b9150612813826127d4565b602082019050919050565b5f6020820190508181035f830152612835816127fc565b9050919050565b7f4552433732313a207472616e7366657220746f206e6f6e2045524337323152655f8201527f63656976657220696d706c656d656e7465720000000000000000000000000000602082015250565b5f612896603283611aaa565b91506128a18261283c565b604082019050919050565b5f6020820190508181035f8301526128c38161288a565b9050919050565b5f81519050919050565b5f82825260208201905092915050565b5f6128ee826128ca565b6128f881856128d4565b9350612908818560208601611aba565b61291181611ae2565b840191505092915050565b5f60808201905061292f5f830187611bd8565b61293c6020830186611bd8565b6129496040830185611ce3565b818103606083015261295b81846128e4565b905095945050505050565b5f8151905061297481611a18565b92915050565b5f6020828403121561298f5761298e6119e5565b5b5f61299c84828501612966565b91505092915050565b7f4552433732313a206d696e7420746f20746865207a65726f20616464726573735f82015250565b5f6129d9602083611aaa565b91506129e4826129a5565b602082019050919050565b5f6020820190508181035f830152612a06816129cd565b9050919050565b7f4552433732313a20746f6b656e20616c7265616479206d696e746564000000005f82015250565b5f612a41601c83611aaa565b9150612a4c82612a0d565b602082019050919050565b5f6020820190508181035f830152612a6e81612a35565b905091905056fe697066733a2f2f516d65536a53696e4870506e6d586d73704d6a776958794e367a533445397a63636172694752336a7863615774712fa2646970667358221220e4a7d5071935233e072b7a8822ed7fbb4d2ac6fe00f5417bd0fe79a69338acf564736f6c63430008140033",
  "immutableReferences": {},
  "source": "// SPDX-License-Identifier: MIT\npragma solidity ^0.8.9;\n\nimport \"@openzeppelin/contracts/token/ERC721/ERC721.sol\";\nimport \"@openzeppelin/contracts/access/Ownable.sol\";\nimport \"@openzeppelin/contracts/utils/Counters.sol\";\n\nimport \"@ganache/console.log/console.sol\";\ncontract CheapBoredApeYachtClub is ERC721, Ownable {\n    using Counters for Counters.Counter;\n\n    Counters.Counter private _tokenIdCounter;\n\n    constructor() ERC721(\"CheapBoredApeYachtClub\", \"BAYC\") {}\n\n    function _baseURI() internal pure override returns (string memory) {\n        return \"ipfs://QmeSjSinHpPnmXmspMjwiXyN6zS4E9zccariGR3jxcaWtq/\";\n    }\n\n    function byeToken() public payable{\n        uint256 tokenId = _tokenIdCounter.current();\n        console.log(\"got here\",tokenId,msg.value);\n        require(msg.value == tokenId * 0.1 ether, \"Not enought funds\");\n        _tokenIdCounter.increment();\n        _safeMint(msg.sender, tokenId);\n    }\n\n    function safeMint(address to, string memory uri) public onlyOwner {\n        uint256 tokenId = _tokenIdCounter.current();\n        _tokenIdCounter.increment();\n        _safeMint(to, tokenId);\n    }\n\n    // The following functions are overrides required by Solidity.\n\n    function _burn(uint256 tokenId) internal override(ERC721) {\n        super._burn(tokenId);\n    }\n\n    function tokenURI(uint256 tokenId)\n        public\n        pure\n        override(ERC721)\n        returns (string memory)\n    {\n        return string(abi.encodePacked(_baseURI(),\"bayc_\",(tokenId+1),\".json\"));\n    }\n\n    function supportsInterface(bytes4 interfaceId)\n        public\n        view\n        override(ERC721)\n        returns (bool)\n    {\n        return super.supportsInterface(interfaceId);\n    }\n}",
  "sourcePath": "/Users/christzaferis/Desktop/Smart Contracts Labs/Smart-Contracts/truffle/contracts/Spacebear.sol",
  "compiler": {
    "name": "solc",
    "version": "0.8.20+commit.a1b79de6.Emscripten.clang"
  },
  "schemaVersion": "3.4.14",
  "updatedAt": "2023-07-09T13:02:23.791Z",
  "networkType": "ethereum",
  "devdoc": {
    "events": {
      "Approval(address,address,uint256)": {
        "details": "Emitted when `owner` enables `approved` to manage the `tokenId` token."
      },
      "ApprovalForAll(address,address,bool)": {
        "details": "Emitted when `owner` enables or disables (`approved`) `operator` to manage all of its assets."
      },
      "Transfer(address,address,uint256)": {
        "details": "Emitted when `tokenId` token is transferred from `from` to `to`."
      }
    },
    "kind": "dev",
    "methods": {
      "approve(address,uint256)": {
        "details": "See {IERC721-approve}."
      },
      "balanceOf(address)": {
        "details": "See {IERC721-balanceOf}."
      },
      "getApproved(uint256)": {
        "details": "See {IERC721-getApproved}."
      },
      "isApprovedForAll(address,address)": {
        "details": "See {IERC721-isApprovedForAll}."
      },
      "name()": {
        "details": "See {IERC721Metadata-name}."
      },
      "owner()": {
        "details": "Returns the address of the current owner."
      },
      "ownerOf(uint256)": {
        "details": "See {IERC721-ownerOf}."
      },
      "renounceOwnership()": {
        "details": "Leaves the contract without owner. It will not be possible to call `onlyOwner` functions. Can only be called by the current owner. NOTE: Renouncing ownership will leave the contract without an owner, thereby disabling any functionality that is only available to the owner."
      },
      "safeTransferFrom(address,address,uint256)": {
        "details": "See {IERC721-safeTransferFrom}."
      },
      "safeTransferFrom(address,address,uint256,bytes)": {
        "details": "See {IERC721-safeTransferFrom}."
      },
      "setApprovalForAll(address,bool)": {
        "details": "See {IERC721-setApprovalForAll}."
      },
      "supportsInterface(bytes4)": {
        "details": "See {IERC165-supportsInterface}."
      },
      "symbol()": {
        "details": "See {IERC721Metadata-symbol}."
      },
      "tokenURI(uint256)": {
        "details": "See {IERC721Metadata-tokenURI}."
      },
      "transferFrom(address,address,uint256)": {
        "details": "See {IERC721-transferFrom}."
      },
      "transferOwnership(address)": {
        "details": "Transfers ownership of the contract to a new account (`newOwner`). Can only be called by the current owner."
      }
    },
    "version": 1
  },
  "userdoc": {
    "kind": "user",
    "methods": {},
    "version": 1
  }
}