{
  "_format": "hh-sol-artifact-1",
  "contractName": "CheapBoredApeYachtClub",
  "sourceName": "contracts/CheapBoredApeYachtClub.sol",
  "abi": [
    {
      "inputs": [],
      "stateMutability": "nonpayable",
      "type": "constructor"
    },
    {
      "anonymous": false,
      "inputs": [
        {
          "indexed": true,
          "internalType": "address",
          "name": "owner",
          "type": "address"
        },
        {
          "indexed": true,
          "internalType": "address",
          "name": "approved",
          "type": "address"
        },
        {
          "indexed": true,
          "internalType": "uint256",
          "name": "tokenId",
          "type": "uint256"
        }
      ],
      "name": "Approval",
      "type": "event"
    },
    {
      "anonymous": false,
      "inputs": [
        {
          "indexed": true,
          "internalType": "address",
          "name": "owner",
          "type": "address"
        },
        {
          "indexed": true,
          "internalType": "address",
          "name": "operator",
          "type": "address"
        },
        {
          "indexed": false,
          "internalType": "bool",
          "name": "approved",
          "type": "bool"
        }
      ],
      "name": "ApprovalForAll",
      "type": "event"
    },
    {
      "anonymous": false,
      "inputs": [
        {
          "indexed": true,
          "internalType": "address",
          "name": "previousOwner",
          "type": "address"
        },
        {
          "indexed": true,
          "internalType": "address",
          "name": "newOwner",
          "type": "address"
        }
      ],
      "name": "OwnershipTransferred",
      "type": "event"
    },
    {
      "anonymous": false,
      "inputs": [
        {
          "indexed": true,
          "internalType": "address",
          "name": "from",
          "type": "address"
        },
        {
          "indexed": true,
          "internalType": "address",
          "name": "to",
          "type": "address"
        },
        {
          "indexed": true,
          "internalType": "uint256",
          "name": "tokenId",
          "type": "uint256"
        }
      ],
      "name": "Transfer",
      "type": "event"
    },
    {
      "inputs": [
        {
          "internalType": "address",
          "name": "to",
          "type": "address"
        },
        {
          "internalType": "uint256",
          "name": "tokenId",
          "type": "uint256"
        }
      ],
      "name": "approve",
      "outputs": [],
      "stateMutability": "nonpayable",
      "type": "function"
    },
    {
      "inputs": [
        {
          "internalType": "address",
          "name": "owner",
          "type": "address"
        }
      ],
      "name": "balanceOf",
      "outputs": [
        {
          "internalType": "uint256",
          "name": "",
          "type": "uint256"
        }
      ],
      "stateMutability": "view",
      "type": "function"
    },
    {
      "inputs": [],
      "name": "byeToken",
      "outputs": [],
      "stateMutability": "payable",
      "type": "function"
    },
    {
      "inputs": [
        {
          "internalType": "uint256",
          "name": "tokenId",
          "type": "uint256"
        }
      ],
      "name": "getApproved",
      "outputs": [
        {
          "internalType": "address",
          "name": "",
          "type": "address"
        }
      ],
      "stateMutability": "view",
      "type": "function"
    },
    {
      "inputs": [
        {
          "internalType": "address",
          "name": "owner",
          "type": "address"
        },
        {
          "internalType": "address",
          "name": "operator",
          "type": "address"
        }
      ],
      "name": "isApprovedForAll",
      "outputs": [
        {
          "internalType": "bool",
          "name": "",
          "type": "bool"
        }
      ],
      "stateMutability": "view",
      "type": "function"
    },
    {
      "inputs": [],
      "name": "name",
      "outputs": [
        {
          "internalType": "string",
          "name": "",
          "type": "string"
        }
      ],
      "stateMutability": "view",
      "type": "function"
    },
    {
      "inputs": [],
      "name": "owner",
      "outputs": [
        {
          "internalType": "address",
          "name": "",
          "type": "address"
        }
      ],
      "stateMutability": "view",
      "type": "function"
    },
    {
      "inputs": [
        {
          "internalType": "uint256",
          "name": "tokenId",
          "type": "uint256"
        }
      ],
      "name": "ownerOf",
      "outputs": [
        {
          "internalType": "address",
          "name": "",
          "type": "address"
        }
      ],
      "stateMutability": "view",
      "type": "function"
    },
    {
      "inputs": [],
      "name": "renounceOwnership",
      "outputs": [],
      "stateMutability": "nonpayable",
      "type": "function"
    },
    {
      "inputs": [
        {
          "internalType": "address",
          "name": "to",
          "type": "address"
        },
        {
          "internalType": "string",
          "name": "uri",
          "type": "string"
        }
      ],
      "name": "safeMint",
      "outputs": [],
      "stateMutability": "nonpayable",
      "type": "function"
    },
    {
      "inputs": [
        {
          "internalType": "address",
          "name": "from",
          "type": "address"
        },
        {
          "internalType": "address",
          "name": "to",
          "type": "address"
        },
        {
          "internalType": "uint256",
          "name": "tokenId",
          "type": "uint256"
        }
      ],
      "name": "safeTransferFrom",
      "outputs": [],
      "stateMutability": "nonpayable",
      "type": "function"
    },
    {
      "inputs": [
        {
          "internalType": "address",
          "name": "from",
          "type": "address"
        },
        {
          "internalType": "address",
          "name": "to",
          "type": "address"
        },
        {
          "internalType": "uint256",
          "name": "tokenId",
          "type": "uint256"
        },
        {
          "internalType": "bytes",
          "name": "data",
          "type": "bytes"
        }
      ],
      "name": "safeTransferFrom",
      "outputs": [],
      "stateMutability": "nonpayable",
      "type": "function"
    },
    {
      "inputs": [
        {
          "internalType": "address",
          "name": "operator",
          "type": "address"
        },
        {
          "internalType": "bool",
          "name": "approved",
          "type": "bool"
        }
      ],
      "name": "setApprovalForAll",
      "outputs": [],
      "stateMutability": "nonpayable",
      "type": "function"
    },
    {
      "inputs": [
        {
          "internalType": "bytes4",
          "name": "interfaceId",
          "type": "bytes4"
        }
      ],
      "name": "supportsInterface",
      "outputs": [
        {
          "internalType": "bool",
          "name": "",
          "type": "bool"
        }
      ],
      "stateMutability": "view",
      "type": "function"
    },
    {
      "inputs": [],
      "name": "symbol",
      "outputs": [
        {
          "internalType": "string",
          "name": "",
          "type": "string"
        }
      ],
      "stateMutability": "view",
      "type": "function"
    },
    {
      "inputs": [
        {
          "internalType": "uint256",
          "name": "tokenId",
          "type": "uint256"
        }
      ],
      "name": "tokenURI",
      "outputs": [
        {
          "internalType": "string",
          "name": "",
          "type": "string"
        }
      ],
      "stateMutability": "pure",
      "type": "function"
    },
    {
      "inputs": [
        {
          "internalType": "address",
          "name": "from",
          "type": "address"
        },
        {
          "internalType": "address",
          "name": "to",
          "type": "address"
        },
        {
          "internalType": "uint256",
          "name": "tokenId",
          "type": "uint256"
        }
      ],
      "name": "transferFrom",
      "outputs": [],
      "stateMutability": "nonpayable",
      "type": "function"
    },
    {
      "inputs": [
        {
          "internalType": "address",
          "name": "newOwner",
          "type": "address"
        }
      ],
      "name": "transferOwnership",
      "outputs": [],
      "stateMutability": "nonpayable",
      "type": "function"
    }
  ],
  "bytecode": "0x60806040523480156200001157600080fd5b506040518060400160405280601681526020017f4368656170426f7265644170655961636874436c7562000000000000000000008152506040518060400160405280600481526020017f424159430000000000000000000000000000000000000000000000000000000081525081600090816200008f919062000412565b508060019081620000a1919062000412565b505050620000c4620000b8620000ca60201b60201c565b620000d260201b60201c565b620004f9565b600033905090565b6000600660009054906101000a900473ffffffffffffffffffffffffffffffffffffffff16905081600660006101000a81548173ffffffffffffffffffffffffffffffffffffffff021916908373ffffffffffffffffffffffffffffffffffffffff1602179055508173ffffffffffffffffffffffffffffffffffffffff168173ffffffffffffffffffffffffffffffffffffffff167f8be0079c531659141344cd1fd0a4f28419497f9722a3daafe3b4186f6b6457e060405160405180910390a35050565b600081519050919050565b7f4e487b7100000000000000000000000000000000000000000000000000000000600052604160045260246000fd5b7f4e487b7100000000000000000000000000000000000000000000000000000000600052602260045260246000fd5b600060028204905060018216806200021a57607f821691505b60208210810362000230576200022f620001d2565b5b50919050565b60008190508160005260206000209050919050565b60006020601f8301049050919050565b600082821b905092915050565b6000600883026200029a7fffffffffffffffffffffffffffffffffffffffffffffffffffffffffffffffff826200025b565b620002a686836200025b565b95508019841693508086168417925050509392505050565b6000819050919050565b6000819050919050565b6000620002f3620002ed620002e784620002be565b620002c8565b620002be565b9050919050565b6000819050919050565b6200030f83620002d2565b620003276200031e82620002fa565b84845462000268565b825550505050565b600090565b6200033e6200032f565b6200034b81848462000304565b505050565b5b8181101562000373576200036760008262000334565b60018101905062000351565b5050565b601f821115620003c2576200038c8162000236565b62000397846200024b565b81016020851015620003a7578190505b620003bf620003b6856200024b565b83018262000350565b50505b505050565b600082821c905092915050565b6000620003e760001984600802620003c7565b1980831691505092915050565b6000620004028383620003d4565b9150826002028217905092915050565b6200041d8262000198565b67ffffffffffffffff811115620004395762000438620001a3565b5b62000445825462000201565b6200045282828562000377565b600060209050601f8311600181146200048a576000841562000475578287015190505b620004818582620003f4565b865550620004f1565b601f1984166200049a8662000236565b60005b82811015620004c4578489015182556001820191506020850194506020810190506200049d565b86831015620004e45784890151620004e0601f891682620003d4565b8355505b6001600288020188555050505b505050505050565b612a9780620005096000396000f3fe6080604052600436106101095760003560e01c8063715018a611610095578063b88d4fde11610064578063b88d4fde14610348578063c87b56dd14610371578063d204c45e146103ae578063e985e9c5146103d7578063f2fde38b1461041457610109565b8063715018a6146102b25780638da5cb5b146102c957806395d89b41146102f4578063a22cb4651461031f57610109565b806323b872dd116100dc57806323b872dd146101dc57806342842e0e146102055780635cd94c2c1461022e5780636352211e1461023857806370a082311461027557610109565b806301ffc9a71461010e57806306fdde031461014b578063081812fc14610176578063095ea7b3146101b3575b600080fd5b34801561011a57600080fd5b50610135600480360381019061013091906119ad565b61043d565b60405161014291906119f5565b60405180910390f35b34801561015757600080fd5b5061016061044f565b60405161016d9190611aa0565b60405180910390f35b34801561018257600080fd5b5061019d60048036038101906101989190611af8565b6104e1565b6040516101aa9190611b66565b60405180910390f35b3480156101bf57600080fd5b506101da60048036038101906101d59190611bad565b610527565b005b3480156101e857600080fd5b5061020360048036038101906101fe9190611bed565b61063e565b005b34801561021157600080fd5b5061022c60048036038101906102279190611bed565b61069e565b005b6102366106be565b005b34801561024457600080fd5b5061025f600480360381019061025a9190611af8565b610738565b60405161026c9190611b66565b60405180910390f35b34801561028157600080fd5b5061029c60048036038101906102979190611c40565b6107be565b6040516102a99190611c7c565b60405180910390f35b3480156102be57600080fd5b506102c7610875565b005b3480156102d557600080fd5b506102de610889565b6040516102eb9190611b66565b60405180910390f35b34801561030057600080fd5b506103096108b3565b6040516103169190611aa0565b60405180910390f35b34801561032b57600080fd5b5061034660048036038101906103419190611cc3565b610945565b005b34801561035457600080fd5b5061036f600480360381019061036a9190611e38565b61095b565b005b34801561037d57600080fd5b5061039860048036038101906103939190611af8565b6109bd565b6040516103a59190611aa0565b60405180910390f35b3480156103ba57600080fd5b506103d560048036038101906103d09190611f5c565b6109fb565b005b3480156103e357600080fd5b506103fe60048036038101906103f99190611fb8565b610a2a565b60405161040b91906119f5565b60405180910390f35b34801561042057600080fd5b5061043b60048036038101906104369190611c40565b610abe565b005b600061044882610b41565b9050919050565b60606000805461045e90612027565b80601f016020809104026020016040519081016040528092919081815260200182805461048a90612027565b80156104d75780601f106104ac576101008083540402835291602001916104d7565b820191906000526020600020905b8154815290600101906020018083116104ba57829003601f168201915b5050505050905090565b60006104ec82610c23565b6004600083815260200190815260200160002060009054906101000a900473ffffffffffffffffffffffffffffffffffffffff169050919050565b600061053282610738565b90508073ffffffffffffffffffffffffffffffffffffffff168373ffffffffffffffffffffffffffffffffffffffff16036105a2576040517f08c379a0000000000000000000000000000000000000000000000000000000008152600401610599906120ca565b60405180910390fd5b8073ffffffffffffffffffffffffffffffffffffffff166105c1610c6e565b73ffffffffffffffffffffffffffffffffffffffff1614806105f057506105ef816105ea610c6e565b610a2a565b5b61062f576040517f08c379a00000000000000000000000000000000000000000000000000000000081526004016106269061215c565b60405180910390fd5b6106398383610c76565b505050565b61064f610649610c6e565b82610d2f565b61068e576040517f08c379a0000000000000000000000000000000000000000000000000000000008152600401610685906121ee565b60405180910390fd5b610699838383610dc4565b505050565b6106b98383836040518060200160405280600081525061095b565b505050565b60006106ca60076110bd565b905067016345785d8a0000816106e0919061223d565b3414610721576040517f08c379a0000000000000000000000000000000000000000000000000000000008152600401610718906122cb565b60405180910390fd5b61072b60076110cb565b61073533826110e1565b50565b600080610744836110ff565b9050600073ffffffffffffffffffffffffffffffffffffffff168173ffffffffffffffffffffffffffffffffffffffff16036107b5576040517f08c379a00000000000000000000000000000000000000000000000000000000081526004016107ac90612337565b60405180910390fd5b80915050919050565b60008073ffffffffffffffffffffffffffffffffffffffff168273ffffffffffffffffffffffffffffffffffffffff160361082e576040517f08c379a0000000000000000000000000000000000000000000000000000000008152600401610825906123c9565b60405180910390fd5b600360008373ffffffffffffffffffffffffffffffffffffffff1673ffffffffffffffffffffffffffffffffffffffff168152602001908152602001600020549050919050565b61087d61113c565b61088760006111ba565b565b6000600660009054906101000a900473ffffffffffffffffffffffffffffffffffffffff16905090565b6060600180546108c290612027565b80601f01602080910402602001604051908101604052809291908181526020018280546108ee90612027565b801561093b5780601f106109105761010080835404028352916020019161093b565b820191906000526020600020905b81548152906001019060200180831161091e57829003601f168201915b5050505050905090565b610957610950610c6e565b8383611280565b5050565b61096c610966610c6e565b83610d2f565b6109ab576040517f08c379a00000000000000000000000000000000000000000000000000000000081526004016109a2906121ee565b60405180910390fd5b6109b7848484846113ec565b50505050565b60606109c7611448565b6001836109d491906123e9565b6040516020016109e5929190612512565b6040516020818303038152906040529050919050565b610a0361113c565b6000610a0f60076110bd565b9050610a1b60076110cb565b610a2583826110e1565b505050565b6000600560008473ffffffffffffffffffffffffffffffffffffffff1673ffffffffffffffffffffffffffffffffffffffff16815260200190815260200160002060008373ffffffffffffffffffffffffffffffffffffffff1673ffffffffffffffffffffffffffffffffffffffff16815260200190815260200160002060009054906101000a900460ff16905092915050565b610ac661113c565b600073ffffffffffffffffffffffffffffffffffffffff168173ffffffffffffffffffffffffffffffffffffffff1603610b35576040517f08c379a0000000000000000000000000000000000000000000000000000000008152600401610b2c906125c2565b60405180910390fd5b610b3e816111ba565b50565b60007f80ac58cd000000000000000000000000000000000000000000000000000000007bffffffffffffffffffffffffffffffffffffffffffffffffffffffff1916827bffffffffffffffffffffffffffffffffffffffffffffffffffffffff19161480610c0c57507f5b5e139f000000000000000000000000000000000000000000000000000000007bffffffffffffffffffffffffffffffffffffffffffffffffffffffff1916827bffffffffffffffffffffffffffffffffffffffffffffffffffffffff1916145b80610c1c5750610c1b82611468565b5b9050919050565b610c2c816114d2565b610c6b576040517f08c379a0000000000000000000000000000000000000000000000000000000008152600401610c6290612337565b60405180910390fd5b50565b600033905090565b816004600083815260200190815260200160002060006101000a81548173ffffffffffffffffffffffffffffffffffffffff021916908373ffffffffffffffffffffffffffffffffffffffff160217905550808273ffffffffffffffffffffffffffffffffffffffff16610ce983610738565b73ffffffffffffffffffffffffffffffffffffffff167f8c5be1e5ebec7d5bd14f71427d1e84f3dd0314c0f7b2291e5b200ac8c7c3b92560405160405180910390a45050565b600080610d3b83610738565b90508073ffffffffffffffffffffffffffffffffffffffff168473ffffffffffffffffffffffffffffffffffffffff161480610d7d5750610d7c8185610a2a565b5b80610dbb57508373ffffffffffffffffffffffffffffffffffffffff16610da3846104e1565b73ffffffffffffffffffffffffffffffffffffffff16145b91505092915050565b8273ffffffffffffffffffffffffffffffffffffffff16610de482610738565b73ffffffffffffffffffffffffffffffffffffffff1614610e3a576040517f08c379a0000000000000000000000000000000000000000000000000000000008152600401610e3190612654565b60405180910390fd5b600073ffffffffffffffffffffffffffffffffffffffff168273ffffffffffffffffffffffffffffffffffffffff1603610ea9576040517f08c379a0000000000000000000000000000000000000000000000000000000008152600401610ea0906126e6565b60405180910390fd5b610eb68383836001611513565b8273ffffffffffffffffffffffffffffffffffffffff16610ed682610738565b73ffffffffffffffffffffffffffffffffffffffff1614610f2c576040517f08c379a0000000000000000000000000000000000000000000000000000000008152600401610f2390612654565b60405180910390fd5b6004600082815260200190815260200160002060006101000a81549073ffffffffffffffffffffffffffffffffffffffff02191690556001600360008573ffffffffffffffffffffffffffffffffffffffff1673ffffffffffffffffffffffffffffffffffffffff168152602001908152602001600020600082825403925050819055506001600360008473ffffffffffffffffffffffffffffffffffffffff1673ffffffffffffffffffffffffffffffffffffffff16815260200190815260200160002060008282540192505081905550816002600083815260200190815260200160002060006101000a81548173ffffffffffffffffffffffffffffffffffffffff021916908373ffffffffffffffffffffffffffffffffffffffff160217905550808273ffffffffffffffffffffffffffffffffffffffff168473ffffffffffffffffffffffffffffffffffffffff167fddf252ad1be2c89b69c2b068fc378daa952ba7f163c4a11628f55a4df523b3ef60405160405180910390a46110b88383836001611519565b505050565b600081600001549050919050565b6001816000016000828254019250508190555050565b6110fb82826040518060200160405280600081525061151f565b5050565b60006002600083815260200190815260200160002060009054906101000a900473ffffffffffffffffffffffffffffffffffffffff169050919050565b611144610c6e565b73ffffffffffffffffffffffffffffffffffffffff16611162610889565b73ffffffffffffffffffffffffffffffffffffffff16146111b8576040517f08c379a00000000000000000000000000000000000000000000000000000000081526004016111af90612752565b60405180910390fd5b565b6000600660009054906101000a900473ffffffffffffffffffffffffffffffffffffffff16905081600660006101000a81548173ffffffffffffffffffffffffffffffffffffffff021916908373ffffffffffffffffffffffffffffffffffffffff1602179055508173ffffffffffffffffffffffffffffffffffffffff168173ffffffffffffffffffffffffffffffffffffffff167f8be0079c531659141344cd1fd0a4f28419497f9722a3daafe3b4186f6b6457e060405160405180910390a35050565b8173ffffffffffffffffffffffffffffffffffffffff168373ffffffffffffffffffffffffffffffffffffffff16036112ee576040517f08c379a00000000000000000000000000000000000000000000000000000000081526004016112e5906127be565b60405180910390fd5b80600560008573ffffffffffffffffffffffffffffffffffffffff1673ffffffffffffffffffffffffffffffffffffffff16815260200190815260200160002060008473ffffffffffffffffffffffffffffffffffffffff1673ffffffffffffffffffffffffffffffffffffffff16815260200190815260200160002060006101000a81548160ff0219169083151502179055508173ffffffffffffffffffffffffffffffffffffffff168373ffffffffffffffffffffffffffffffffffffffff167f17307eab39ab6107e8899845ad3d59bd9653f200f220920489ca2b5937696c31836040516113df91906119f5565b60405180910390a3505050565b6113f7848484610dc4565b6114038484848461157a565b611442576040517f08c379a000000000000000000000000000000000000000000000000000000000815260040161143990612850565b60405180910390fd5b50505050565b6060604051806060016040528060368152602001612a2c60369139905090565b60007f01ffc9a7000000000000000000000000000000000000000000000000000000007bffffffffffffffffffffffffffffffffffffffffffffffffffffffff1916827bffffffffffffffffffffffffffffffffffffffffffffffffffffffff1916149050919050565b60008073ffffffffffffffffffffffffffffffffffffffff166114f4836110ff565b73ffffffffffffffffffffffffffffffffffffffff1614159050919050565b50505050565b50505050565b6115298383611701565b611536600084848461157a565b611575576040517f08c379a000000000000000000000000000000000000000000000000000000000815260040161156c90612850565b60405180910390fd5b505050565b600061159b8473ffffffffffffffffffffffffffffffffffffffff1661191e565b156116f4578373ffffffffffffffffffffffffffffffffffffffff1663150b7a026115c4610c6e565b8786866040518563ffffffff1660e01b81526004016115e694939291906128c5565b6020604051808303816000875af192505050801561162257506040513d601f19601f8201168201806040525081019061161f9190612926565b60015b6116a4573d8060008114611652576040519150601f19603f3d011682016040523d82523d6000602084013e611657565b606091505b50600081510361169c576040517f08c379a000000000000000000000000000000000000000000000000000000000815260040161169390612850565b60405180910390fd5b805181602001fd5b63150b7a0260e01b7bffffffffffffffffffffffffffffffffffffffffffffffffffffffff1916817bffffffffffffffffffffffffffffffffffffffffffffffffffffffff1916149150506116f9565b600190505b949350505050565b600073ffffffffffffffffffffffffffffffffffffffff168273ffffffffffffffffffffffffffffffffffffffff1603611770576040517f08c379a00000000000000000000000000000000000000000000000000000000081526004016117679061299f565b60405180910390fd5b611779816114d2565b156117b9576040517f08c379a00000000000000000000000000000000000000000000000000000000081526004016117b090612a0b565b60405180910390fd5b6117c7600083836001611513565b6117d0816114d2565b15611810576040517f08c379a000000000000000000000000000000000000000000000000000000000815260040161180790612a0b565b60405180910390fd5b6001600360008473ffffffffffffffffffffffffffffffffffffffff1673ffffffffffffffffffffffffffffffffffffffff16815260200190815260200160002060008282540192505081905550816002600083815260200190815260200160002060006101000a81548173ffffffffffffffffffffffffffffffffffffffff021916908373ffffffffffffffffffffffffffffffffffffffff160217905550808273ffffffffffffffffffffffffffffffffffffffff16600073ffffffffffffffffffffffffffffffffffffffff167fddf252ad1be2c89b69c2b068fc378daa952ba7f163c4a11628f55a4df523b3ef60405160405180910390a461191a600083836001611519565b5050565b6000808273ffffffffffffffffffffffffffffffffffffffff163b119050919050565b6000604051905090565b600080fd5b600080fd5b60007fffffffff0000000000000000000000000000000000000000000000000000000082169050919050565b61198a81611955565b811461199557600080fd5b50565b6000813590506119a781611981565b92915050565b6000602082840312156119c3576119c261194b565b5b60006119d184828501611998565b91505092915050565b60008115159050919050565b6119ef816119da565b82525050565b6000602082019050611a0a60008301846119e6565b92915050565b600081519050919050565b600082825260208201905092915050565b60005b83811015611a4a578082015181840152602081019050611a2f565b60008484015250505050565b6000601f19601f8301169050919050565b6000611a7282611a10565b611a7c8185611a1b565b9350611a8c818560208601611a2c565b611a9581611a56565b840191505092915050565b60006020820190508181036000830152611aba8184611a67565b905092915050565b6000819050919050565b611ad581611ac2565b8114611ae057600080fd5b50565b600081359050611af281611acc565b92915050565b600060208284031215611b0e57611b0d61194b565b5b6000611b1c84828501611ae3565b91505092915050565b600073ffffffffffffffffffffffffffffffffffffffff82169050919050565b6000611b5082611b25565b9050919050565b611b6081611b45565b82525050565b6000602082019050611b7b6000830184611b57565b92915050565b611b8a81611b45565b8114611b9557600080fd5b50565b600081359050611ba781611b81565b92915050565b60008060408385031215611bc457611bc361194b565b5b6000611bd285828601611b98565b9250506020611be385828601611ae3565b9150509250929050565b600080600060608486031215611c0657611c0561194b565b5b6000611c1486828701611b98565b9350506020611c2586828701611b98565b9250506040611c3686828701611ae3565b9150509250925092565b600060208284031215611c5657611c5561194b565b5b6000611c6484828501611b98565b91505092915050565b611c7681611ac2565b82525050565b6000602082019050611c916000830184611c6d565b92915050565b611ca0816119da565b8114611cab57600080fd5b50565b600081359050611cbd81611c97565b92915050565b60008060408385031215611cda57611cd961194b565b5b6000611ce885828601611b98565b9250506020611cf985828601611cae565b9150509250929050565b600080fd5b600080fd5b7f4e487b7100000000000000000000000000000000000000000000000000000000600052604160045260246000fd5b611d4582611a56565b810181811067ffffffffffffffff82111715611d6457611d63611d0d565b5b80604052505050565b6000611d77611941565b9050611d838282611d3c565b919050565b600067ffffffffffffffff821115611da357611da2611d0d565b5b611dac82611a56565b9050602081019050919050565b82818337600083830152505050565b6000611ddb611dd684611d88565b611d6d565b905082815260208101848484011115611df757611df6611d08565b5b611e02848285611db9565b509392505050565b600082601f830112611e1f57611e1e611d03565b5b8135611e2f848260208601611dc8565b91505092915050565b60008060008060808587031215611e5257611e5161194b565b5b6000611e6087828801611b98565b9450506020611e7187828801611b98565b9350506040611e8287828801611ae3565b925050606085013567ffffffffffffffff811115611ea357611ea2611950565b5b611eaf87828801611e0a565b91505092959194509250565b600067ffffffffffffffff821115611ed657611ed5611d0d565b5b611edf82611a56565b9050602081019050919050565b6000611eff611efa84611ebb565b611d6d565b905082815260208101848484011115611f1b57611f1a611d08565b5b611f26848285611db9565b509392505050565b600082601f830112611f4357611f42611d03565b5b8135611f53848260208601611eec565b91505092915050565b60008060408385031215611f7357611f7261194b565b5b6000611f8185828601611b98565b925050602083013567ffffffffffffffff811115611fa257611fa1611950565b5b611fae85828601611f2e565b9150509250929050565b60008060408385031215611fcf57611fce61194b565b5b6000611fdd85828601611b98565b9250506020611fee85828601611b98565b9150509250929050565b7f4e487b7100000000000000000000000000000000000000000000000000000000600052602260045260246000fd5b6000600282049050600182168061203f57607f821691505b60208210810361205257612051611ff8565b5b50919050565b7f4552433732313a20617070726f76616c20746f2063757272656e74206f776e6560008201527f7200000000000000000000000000000000000000000000000000000000000000602082015250565b60006120b4602183611a1b565b91506120bf82612058565b604082019050919050565b600060208201905081810360008301526120e3816120a7565b9050919050565b7f4552433732313a20617070726f76652063616c6c6572206973206e6f7420746f60008201527f6b656e206f776e6572206f7220617070726f76656420666f7220616c6c000000602082015250565b6000612146603d83611a1b565b9150612151826120ea565b604082019050919050565b6000602082019050818103600083015261217581612139565b9050919050565b7f4552433732313a2063616c6c6572206973206e6f7420746f6b656e206f776e6560008201527f72206f7220617070726f76656400000000000000000000000000000000000000602082015250565b60006121d8602d83611a1b565b91506121e38261217c565b604082019050919050565b60006020820190508181036000830152612207816121cb565b9050919050565b7f4e487b7100000000000000000000000000000000000000000000000000000000600052601160045260246000fd5b600061224882611ac2565b915061225383611ac2565b925082820261226181611ac2565b915082820484148315176122785761227761220e565b5b5092915050565b7f4e6f7420656e6f756768742066756e6473000000000000000000000000000000600082015250565b60006122b5601183611a1b565b91506122c08261227f565b602082019050919050565b600060208201905081810360008301526122e4816122a8565b9050919050565b7f4552433732313a20696e76616c696420746f6b656e2049440000000000000000600082015250565b6000612321601883611a1b565b915061232c826122eb565b602082019050919050565b6000602082019050818103600083015261235081612314565b9050919050565b7f4552433732313a2061646472657373207a65726f206973206e6f74206120766160008201527f6c6964206f776e65720000000000000000000000000000000000000000000000602082015250565b60006123b3602983611a1b565b91506123be82612357565b604082019050919050565b600060208201905081810360008301526123e2816123a6565b9050919050565b60006123f482611ac2565b91506123ff83611ac2565b92508282019050808211156124175761241661220e565b5b92915050565b600081905092915050565b600061243382611a10565b61243d818561241d565b935061244d818560208601611a2c565b80840191505092915050565b7f626179635f000000000000000000000000000000000000000000000000000000600082015250565b600061248f60058361241d565b915061249a82612459565b600582019050919050565b6000819050919050565b6124c06124bb82611ac2565b6124a5565b82525050565b7f2e6a736f6e000000000000000000000000000000000000000000000000000000600082015250565b60006124fc60058361241d565b9150612507826124c6565b600582019050919050565b600061251e8285612428565b915061252982612482565b915061253582846124af565b602082019150612544826124ef565b91508190509392505050565b7f4f776e61626c653a206e6577206f776e657220697320746865207a65726f206160008201527f6464726573730000000000000000000000000000000000000000000000000000602082015250565b60006125ac602683611a1b565b91506125b782612550565b604082019050919050565b600060208201905081810360008301526125db8161259f565b9050919050565b7f4552433732313a207472616e736665722066726f6d20696e636f72726563742060008201527f6f776e6572000000000000000000000000000000000000000000000000000000602082015250565b600061263e602583611a1b565b9150612649826125e2565b604082019050919050565b6000602082019050818103600083015261266d81612631565b9050919050565b7f4552433732313a207472616e7366657220746f20746865207a65726f2061646460008201527f7265737300000000000000000000000000000000000000000000000000000000602082015250565b60006126d0602483611a1b565b91506126db82612674565b604082019050919050565b600060208201905081810360008301526126ff816126c3565b9050919050565b7f4f776e61626c653a2063616c6c6572206973206e6f7420746865206f776e6572600082015250565b600061273c602083611a1b565b915061274782612706565b602082019050919050565b6000602082019050818103600083015261276b8161272f565b9050919050565b7f4552433732313a20617070726f766520746f2063616c6c657200000000000000600082015250565b60006127a8601983611a1b565b91506127b382612772565b602082019050919050565b600060208201905081810360008301526127d78161279b565b9050919050565b7f4552433732313a207472616e7366657220746f206e6f6e20455243373231526560008201527f63656976657220696d706c656d656e7465720000000000000000000000000000602082015250565b600061283a603283611a1b565b9150612845826127de565b604082019050919050565b600060208201905081810360008301526128698161282d565b9050919050565b600081519050919050565b600082825260208201905092915050565b600061289782612870565b6128a1818561287b565b93506128b1818560208601611a2c565b6128ba81611a56565b840191505092915050565b60006080820190506128da6000830187611b57565b6128e76020830186611b57565b6128f46040830185611c6d565b8181036060830152612906818461288c565b905095945050505050565b60008151905061292081611981565b92915050565b60006020828403121561293c5761293b61194b565b5b600061294a84828501612911565b91505092915050565b7f4552433732313a206d696e7420746f20746865207a65726f2061646472657373600082015250565b6000612989602083611a1b565b915061299482612953565b602082019050919050565b600060208201905081810360008301526129b88161297c565b9050919050565b7f4552433732313a20746f6b656e20616c7265616479206d696e74656400000000600082015250565b60006129f5601c83611a1b565b9150612a00826129bf565b602082019050919050565b60006020820190508181036000830152612a24816129e8565b905091905056fe697066733a2f2f516d65536a53696e4870506e6d586d73704d6a776958794e367a533445397a63636172694752336a7863615774712fa26469706673582212202606e7bba61d54fbb7f82f53c9ce160b3f5a777b31216727041138f3fb091a0064736f6c63430008120033",
  "linkReferences": {},
  "deployedLinkReferences": {}
}